{
  "_format": "hh-sol-artifact-1",
  "contractName": "SwapperV2",
  "sourceName": "contracts/SwapperV2.sol",
  "abi": [
    {
      "anonymous": false,
      "inputs": [
        {
          "indexed": false,
          "internalType": "address",
          "name": "recipient",
          "type": "address"
        },
        {
          "indexed": false,
          "internalType": "address",
          "name": "inputToken",
          "type": "address"
        },
        {
          "indexed": false,
          "internalType": "address",
          "name": "outputToken",
          "type": "address"
        },
        {
          "indexed": false,
          "internalType": "uint256",
          "name": "amountIn",
          "type": "uint256"
        },
        {
          "indexed": false,
          "internalType": "uint256",
          "name": "amountOut",
          "type": "uint256"
        }
      ],
      "name": "ExactInputEvent",
      "type": "event"
    },
    {
      "anonymous": false,
      "inputs": [
        {
          "indexed": false,
          "internalType": "address",
          "name": "recipient",
          "type": "address"
        },
        {
          "indexed": false,
          "internalType": "address",
          "name": "inputToken",
          "type": "address"
        },
        {
          "indexed": false,
          "internalType": "address",
          "name": "outputToken",
          "type": "address"
        },
        {
          "indexed": false,
          "internalType": "uint256",
          "name": "amountIn",
          "type": "uint256"
        },
        {
          "indexed": false,
          "internalType": "uint256",
          "name": "amountOut",
          "type": "uint256"
        },
        {
          "indexed": false,
          "internalType": "uint256",
          "name": "refund",
          "type": "uint256"
        }
      ],
      "name": "ExactOutputEvent",
      "type": "event"
    },
    {
      "anonymous": false,
      "inputs": [
        {
          "indexed": false,
          "internalType": "address",
          "name": "recipient",
          "type": "address"
        },
        {
          "indexed": false,
          "internalType": "uint256",
          "name": "amount",
          "type": "uint256"
        }
      ],
      "name": "TonToWTON",
      "type": "event"
    },
    {
      "anonymous": false,
      "inputs": [
        {
          "indexed": false,
          "internalType": "address",
          "name": "recipient",
          "type": "address"
        },
        {
          "indexed": false,
          "internalType": "uint256",
          "name": "amount",
          "type": "uint256"
        }
      ],
      "name": "WtonToTON",
      "type": "event"
    },
    {
      "inputs": [],
      "name": "_WETH",
      "outputs": [
        {
          "internalType": "contract IWETH",
          "name": "",
          "type": "address"
        }
      ],
      "stateMutability": "view",
      "type": "function"
    },
    {
      "inputs": [
        {
          "internalType": "bytes",
          "name": "path",
          "type": "bytes"
        }
      ],
      "name": "decodeLastPool",
      "outputs": [
        {
          "internalType": "address",
          "name": "tokenA",
          "type": "address"
        },
        {
          "internalType": "address",
          "name": "tokenB",
          "type": "address"
        },
        {
          "internalType": "uint24",
          "name": "fee",
          "type": "uint24"
        }
      ],
      "stateMutability": "pure",
      "type": "function"
    },
    {
      "inputs": [
        {
          "components": [
            {
              "internalType": "bytes",
              "name": "path",
              "type": "bytes"
            },
            {
              "internalType": "address",
              "name": "recipient",
              "type": "address"
            },
            {
              "internalType": "uint256",
              "name": "deadline",
              "type": "uint256"
            },
            {
              "internalType": "uint256",
              "name": "amountIn",
              "type": "uint256"
            },
            {
              "internalType": "uint256",
              "name": "amountOutMinimum",
              "type": "uint256"
            }
          ],
          "internalType": "struct ISwapRouter.ExactInputParams",
          "name": "params",
          "type": "tuple"
        },
        {
          "internalType": "bool",
          "name": "_wrapEth",
          "type": "bool"
        },
        {
          "internalType": "bool",
          "name": "_outputUnwrapEth",
          "type": "bool"
        },
        {
          "internalType": "bool",
          "name": "_inputWrapWTON",
          "type": "bool"
        },
        {
          "internalType": "bool",
          "name": "_outputUnwrapTON",
          "type": "bool"
        }
      ],
      "name": "exactInput",
      "outputs": [
        {
          "internalType": "uint256",
          "name": "amountOut",
          "type": "uint256"
        }
      ],
      "stateMutability": "payable",
      "type": "function"
    },
    {
      "inputs": [
        {
          "components": [
            {
              "internalType": "bytes",
              "name": "path",
              "type": "bytes"
            },
            {
              "internalType": "address",
              "name": "recipient",
              "type": "address"
            },
            {
              "internalType": "uint256",
              "name": "deadline",
              "type": "uint256"
            },
            {
              "internalType": "uint256",
              "name": "amountOut",
              "type": "uint256"
            },
            {
              "internalType": "uint256",
              "name": "amountInMaximum",
              "type": "uint256"
            }
          ],
          "internalType": "struct ISwapRouter.ExactOutputParams",
          "name": "params",
          "type": "tuple"
        },
        {
          "internalType": "bool",
          "name": "_wrapEth",
          "type": "bool"
        },
        {
          "internalType": "bool",
          "name": "_outputUnwrapEth",
          "type": "bool"
        },
        {
          "internalType": "bool",
          "name": "_inputWrapWTON",
          "type": "bool"
        },
        {
          "internalType": "bool",
          "name": "_outputUnwrapTON",
          "type": "bool"
        }
      ],
      "name": "exactOutput",
      "outputs": [
        {
          "internalType": "uint256",
          "name": "amountIn",
          "type": "uint256"
        }
      ],
      "stateMutability": "payable",
      "type": "function"
    },
    {
      "inputs": [
        {
          "internalType": "address",
          "name": "sender",
          "type": "address"
        },
        {
          "internalType": "address",
          "name": "spender",
          "type": "address"
        },
        {
          "internalType": "uint256",
          "name": "transferAmount",
          "type": "uint256"
        },
        {
          "internalType": "bytes",
          "name": "data",
          "type": "bytes"
        }
      ],
      "name": "onApprove",
      "outputs": [
        {
          "internalType": "bool",
          "name": "",
          "type": "bool"
        }
      ],
      "stateMutability": "nonpayable",
      "type": "function"
    },
    {
      "inputs": [],
      "name": "ton",
      "outputs": [
        {
          "internalType": "address",
          "name": "",
          "type": "address"
        }
      ],
      "stateMutability": "view",
      "type": "function"
    },
    {
      "inputs": [
        {
          "internalType": "uint256",
          "name": "_amount",
          "type": "uint256"
        }
      ],
      "name": "tonToWton",
      "outputs": [],
      "stateMutability": "nonpayable",
      "type": "function"
    },
    {
      "inputs": [],
      "name": "tos",
      "outputs": [
        {
          "internalType": "address",
          "name": "",
          "type": "address"
        }
      ],
      "stateMutability": "view",
      "type": "function"
    },
    {
      "inputs": [],
      "name": "uniswapRouter",
      "outputs": [
        {
          "internalType": "contract ISwapRouter",
          "name": "",
          "type": "address"
        }
      ],
      "stateMutability": "view",
      "type": "function"
    },
    {
      "inputs": [],
      "name": "wton",
      "outputs": [
        {
          "internalType": "address",
          "name": "",
          "type": "address"
        }
      ],
      "stateMutability": "view",
      "type": "function"
    },
    {
      "inputs": [
        {
          "internalType": "uint256",
          "name": "_amount",
          "type": "uint256"
        }
      ],
      "name": "wtonToTon",
      "outputs": [],
      "stateMutability": "nonpayable",
      "type": "function"
    }
  ],
  "bytecode": "0x6080604052600160035534801561001557600080fd5b50614607806100256000396000f3fe60806040526004361061009c5760003560e01c8063735de9f711610064578063735de9f7146101a657806389f395de146101d15780638d62d949146101fc57806393c8068f14610227578063cc48b94714610250578063e0af36161461027b5761009c565b806313e76be7146100a157806327e26c3b146100e05780633d54dc4a146101105780634273ca1614610140578063454797491461017d575b600080fd5b3480156100ad57600080fd5b506100c860048036038101906100c39190612ce4565b6102a6565b6040516100d793929190612d8c565b60405180910390f35b6100fa60048036038101906100f59190612f0f565b610320565b6040516101079190612fb5565b60405180910390f35b61012a60048036038101906101259190613078565b61033b565b6040516101379190612fb5565b60405180910390f35b34801561014c57600080fd5b506101676004803603810190610162919061316f565b610356565b6040516101749190613206565b60405180910390f35b34801561018957600080fd5b506101a4600480360381019061019f9190613221565b610a7d565b005b3480156101b257600080fd5b506101bb610a8a565b6040516101c891906132ad565b60405180910390f35b3480156101dd57600080fd5b506101e6610ab0565b6040516101f391906132c8565b60405180910390f35b34801561020857600080fd5b50610211610ad6565b60405161021e91906132c8565b60405180910390f35b34801561023357600080fd5b5061024e60048036038101906102499190613221565b610afa565b005b34801561025c57600080fd5b50610265610b07565b60405161027291906132c8565b60405180910390f35b34801561028757600080fd5b50610290610b2d565b60405161029d9190613304565b60405180910390f35b600080600080602b905060006102d38287516102c2919061334e565b8388610b539092919063ffffffff16565b90506102e9600082610c7190919063ffffffff16565b94506102ff601482610ce790919063ffffffff16565b9250610315601782610c7190919063ffffffff16565b935050509193909250565b6000610330338787878787610d4e565b905095945050505050565b600061034b338787878787611565565b905095945050505050565b6000600160009054906101000a900473ffffffffffffffffffffffffffffffffffffffff1673ffffffffffffffffffffffffffffffffffffffff163373ffffffffffffffffffffffffffffffffffffffff1614806103ff575060008054906101000a900473ffffffffffffffffffffffffffffffffffffffff1673ffffffffffffffffffffffffffffffffffffffff163373ffffffffffffffffffffffffffffffffffffffff16145b61043e576040517f08c379a0000000000000000000000000000000000000000000000000000000008152600401610435906133df565b60405180910390fd5b600083839050905060a4811015806104565750601581145b610495576040517f08c379a000000000000000000000000000000000000000000000000000000000815260040161048c9061344b565b60405180910390fd5b60a48110610961576000806105036001846104b0919061334e565b87878080601f016020809104026020016040519081016040528093929190818152602001838380828437600081840152601f19601f82011690508083019250505050505050611b6790919063ffffffff16565b60ff1614610512576001610515565b60005b905060008061057d60028561052a919061334e565b88888080601f016020809104026020016040519081016040528093929190818152602001838380828437600081840152601f19601f82011690508083019250505050505050611b6790919063ffffffff16565b60ff161461058c57600161058f565b60005b90506000806105f76003866105a4919061334e565b89898080601f016020809104026020016040519081016040528093929190818152602001838380828437600081840152601f19601f82011690508083019250505050505050611b6790919063ffffffff16565b60ff1614610606576001610609565b60005b905060008061067160048761061e919061334e565b8a8a8080601f016020809104026020016040519081016040528093929190818152602001838380828437600081840152601f19601f82011690508083019250505050505050611b6790919063ffffffff16565b60ff1614610680576001610683565b60005b905060006106ed6001600488610699919061334e565b8b8b8080601f016020809104026020016040519081016040528093929190818152602001838380828437600081840152601f19601f82011690508083019250505050505050610b539092919063ffffffff16565b9050600081519050600061074f60008c8c8080601f016020809104026020016040519081016040528093929190818152602001838380828437600081840152601f19601f82011690508083019250505050505050611b6790919063ffffffff16565b60ff1611156108595760006040518060a0016040528061079360006001607487610779919061334e565b610783919061334e565b87610b539092919063ffffffff16565b81526020016107c360016074866107aa919061334e565b6107b4919061334e565b86610c7190919063ffffffff16565b73ffffffffffffffffffffffffffffffffffffffff16815260200142815260200161080f60016040866107f6919061334e565b610800919061334e565b86611bce90919063ffffffff16565b815260200161083f6001602086610826919061334e565b610830919061334e565b86611bce90919063ffffffff16565b81525090506108528e8286888a8c610d4e565b5050610956565b60006040518060a001604052806108946000600160748761087a919061334e565b610884919061334e565b87610b539092919063ffffffff16565b81526020016108c460016074866108ab919061334e565b6108b5919061334e565b86610c7190919063ffffffff16565b73ffffffffffffffffffffffffffffffffffffffff16815260200142815260200161091060016040866108f7919061334e565b610901919061334e565b86611bce90919063ffffffff16565b81526020016109406001602086610927919061334e565b610931919061334e565b86611bce90919063ffffffff16565b81525090506109538e8286888a8c611565565b50505b505050505050610a6f565b6015811415610a6e576000806109d060018461097d919061334e565b87878080601f016020809104026020016040519081016040528093929190818152602001838380828437600081840152601f19601f82011690508083019250505050505050611b6790919063ffffffff16565b60ff16146109df5760016109e2565b60005b90506000610a496015846109f6919061334e565b87878080601f016020809104026020016040519081016040528093929190818152602001838380828437600081840152601f19601f82011690508083019250505050505050610c7190919063ffffffff16565b90508115610a6057610a5b8188611c35565b610a6b565b610a6a8188611da7565b5b50505b5b600191505095945050505050565b610a873382611c35565b50565b600560009054906101000a900473ffffffffffffffffffffffffffffffffffffffff1681565b600260009054906101000a900473ffffffffffffffffffffffffffffffffffffffff1681565b60008054906101000a900473ffffffffffffffffffffffffffffffffffffffff1681565b610b043382611da7565b50565b600160009054906101000a900473ffffffffffffffffffffffffffffffffffffffff1681565b600460009054906101000a900473ffffffffffffffffffffffffffffffffffffffff1681565b606081601f83610b63919061346b565b1015610ba4576040517f08c379a0000000000000000000000000000000000000000000000000000000008152600401610b9b9061350d565b60405180910390fd5b8183610bb0919061346b565b84511015610bf3576040517f08c379a0000000000000000000000000000000000000000000000000000000008152600401610bea90613579565b60405180910390fd5b6060821560008114610c145760405191506000825260208201604052610c65565b6040519150601f8416801560200281840101858101878315602002848b0101015b81831015610c525780518352602083019250602081019050610c35565b50868552601f19601f8301166040525050505b50809150509392505050565b6000601482610c80919061346b565b83511015610cc3576040517f08c379a0000000000000000000000000000000000000000000000000000000008152600401610cba906135e5565b60405180910390fd5b60006c01000000000000000000000000836020860101510490508091505092915050565b6000600382610cf6919061346b565b83511015610d39576040517f08c379a0000000000000000000000000000000000000000000000000000000008152600401610d3090613651565b60405180910390fd5b60008260038501015190508091505092915050565b60008673ffffffffffffffffffffffffffffffffffffffff16866020015173ffffffffffffffffffffffffffffffffffffffff1614610dc2576040517f08c379a0000000000000000000000000000000000000000000000000000000008152600401610db9906136bd565b60405180910390fd5b6000806000806000610de38c8c600001518d608001518d8d8d8d6001611f0e565b9450945094509450945060008b6020015190508780610dff5750895b15610e08573090505b8b608001518573ffffffffffffffffffffffffffffffffffffffff1663dd62ed3e30600560009054906101000a900473ffffffffffffffffffffffffffffffffffffffff166040518363ffffffff1660e01b8152600401610e6a9291906136dd565b602060405180830381865afa158015610e87573d6000803e3d6000fd5b505050506040513d601f19601f82011682018060405250810190610eab919061371b565b1015610f95578473ffffffffffffffffffffffffffffffffffffffff1663095ea7b3600560009054906101000a900473ffffffffffffffffffffffffffffffffffffffff168e608001516040518363ffffffff1660e01b8152600401610f12929190613748565b6020604051808303816000875af1158015610f31573d6000803e3d6000fd5b505050506040513d601f19601f82011682018060405250810190610f559190613786565b610f94576040517f08c379a0000000000000000000000000000000000000000000000000000000008152600401610f8b906137ff565b60405180910390fd5b5b6001861415611117578815610fcd57633b9aca00808d60800151610fb9919061384e565b610fc3919061387f565b8c60800181815250505b60006040518061010001604052808773ffffffffffffffffffffffffffffffffffffffff1681526020018673ffffffffffffffffffffffffffffffffffffffff1681526020018462ffffff1681526020018373ffffffffffffffffffffffffffffffffffffffff1681526020014281526020018e6060015181526020018e608001518152602001600073ffffffffffffffffffffffffffffffffffffffff168152509050600560009054906101000a900473ffffffffffffffffffffffffffffffffffffffff1673ffffffffffffffffffffffffffffffffffffffff1663db3e2198826040518263ffffffff1660e01b81526004016110cc91906139b7565b6020604051808303816000875af11580156110eb573d6000803e3d6000fd5b505050506040513d601f19601f8201168201806040525081019061110f919061371b565b975050611213565b8b600001518c60000181905250808c6020019073ffffffffffffffffffffffffffffffffffffffff16908173ffffffffffffffffffffffffffffffffffffffff1681525050600c42611169919061346b565b8c6040018181525050600560009054906101000a900473ffffffffffffffffffffffffffffffffffffffff1673ffffffffffffffffffffffffffffffffffffffff1663f28c04988d6040518263ffffffff1660e01b81526004016111cd9190613ad1565b6020604051808303816000875af11580156111ec573d6000803e3d6000fd5b505050506040513d601f19601f82011682018060405250810190611210919061371b565b96505b60008c60600151905088156113045760008054906101000a900473ffffffffffffffffffffffffffffffffffffffff1673ffffffffffffffffffffffffffffffffffffffff1663e3b99e858f836040518363ffffffff1660e01b815260040161127d929190613748565b6020604051808303816000875af115801561129c573d6000803e3d6000fd5b505050506040513d601f19601f820116820180604052508101906112c09190613786565b6112ff576040517f08c379a00000000000000000000000000000000000000000000000000000000081526004016112f690613b3f565b60405180910390fd5b6113e0565b8a156113df57600460009054906101000a900473ffffffffffffffffffffffffffffffffffffffff1673ffffffffffffffffffffffffffffffffffffffff16632e1a7d4d826040518263ffffffff1660e01b81526004016113659190612fb5565b600060405180830381600087803b15801561137f57600080fd5b505af1158015611393573d6000803e3d6000fd5b505050508d73ffffffffffffffffffffffffffffffffffffffff166108fc829081150290604051600060405180830381858888f193505050501580156113dd573d6000803e3d6000fd5b505b5b60008e905060008e608001518a101561151157898f60800151611403919061334e565b90508d156114e457600460009054906101000a900473ffffffffffffffffffffffffffffffffffffffff1673ffffffffffffffffffffffffffffffffffffffff16632e1a7d4d826040518263ffffffff1660e01b81526004016114669190612fb5565b600060405180830381600087803b15801561148057600080fd5b505af1158015611494573d6000803e3d6000fd5b505050508173ffffffffffffffffffffffffffffffffffffffff166108fc829081150290604051600060405180830381858888f193505050501580156114de573d6000803e3d6000fd5b50611510565b61150f82828a73ffffffffffffffffffffffffffffffffffffffff1661258d9092919063ffffffff16565b5b5b7fb249544ecc37c72b533dc0368d9901211d1a1f8dcab3942d772db24ee84219438289888d878660405161154a96959493929190613b5f565b60405180910390a15050505050505050509695505050505050565b60008673ffffffffffffffffffffffffffffffffffffffff16866020015173ffffffffffffffffffffffffffffffffffffffff16146115d9576040517f08c379a00000000000000000000000000000000000000000000000000000000081526004016115d0906136bd565b60405180910390fd5b60008060008060006115fa8c8c600001518d606001518d8d8d8d6000611f0e565b9450945094509450945060008b60200151905087806116165750895b1561161f573090505b8473ffffffffffffffffffffffffffffffffffffffff1663095ea7b3600560009054906101000a900473ffffffffffffffffffffffffffffffffffffffff168e606001516040518363ffffffff1660e01b8152600401611680929190613748565b6020604051808303816000875af115801561169f573d6000803e3d6000fd5b505050506040513d601f19601f820116820180604052508101906116c39190613786565b611702576040517f08c379a00000000000000000000000000000000000000000000000000000000081526004016116f9906137ff565b60405180910390fd5b60018614156118615760006040518061010001604052808773ffffffffffffffffffffffffffffffffffffffff1681526020018673ffffffffffffffffffffffffffffffffffffffff1681526020018462ffffff1681526020018373ffffffffffffffffffffffffffffffffffffffff168152602001600c42611785919061346b565b81526020018e6060015181526020018e608001518152602001600073ffffffffffffffffffffffffffffffffffffffff168152509050600560009054906101000a900473ffffffffffffffffffffffffffffffffffffffff1673ffffffffffffffffffffffffffffffffffffffff1663414bf389826040518263ffffffff1660e01b81526004016118169190613c62565b6020604051808303816000875af1158015611835573d6000803e3d6000fd5b505050506040513d601f19601f82011682018060405250810190611859919061371b565b975050611950565b808c6020019073ffffffffffffffffffffffffffffffffffffffff16908173ffffffffffffffffffffffffffffffffffffffff1681525050600c426118a6919061346b565b8c6040018181525050600560009054906101000a900473ffffffffffffffffffffffffffffffffffffffff1673ffffffffffffffffffffffffffffffffffffffff1663c04b8d598d6040518263ffffffff1660e01b815260040161190a9190613cf4565b6020604051808303816000875af1158015611929573d6000803e3d6000fd5b505050506040513d601f19601f8201168201806040525081019061194d919061371b565b96505b8715611a385760008054906101000a900473ffffffffffffffffffffffffffffffffffffffff1673ffffffffffffffffffffffffffffffffffffffff1663e3b99e858e896040518363ffffffff1660e01b81526004016119b1929190613748565b6020604051808303816000875af11580156119d0573d6000803e3d6000fd5b505050506040513d601f19601f820116820180604052508101906119f49190613786565b611a33576040517f08c379a0000000000000000000000000000000000000000000000000000000008152600401611a2a90613b3f565b60405180910390fd5b611b14565b8915611b1357600460009054906101000a900473ffffffffffffffffffffffffffffffffffffffff1673ffffffffffffffffffffffffffffffffffffffff16632e1a7d4d886040518263ffffffff1660e01b8152600401611a999190612fb5565b600060405180830381600087803b158015611ab357600080fd5b505af1158015611ac7573d6000803e3d6000fd5b505050508c73ffffffffffffffffffffffffffffffffffffffff166108fc889081150290604051600060405180830381858888f19350505050158015611b11573d6000803e3d6000fd5b505b5b7fa53fabf69304d48dc03d1ebf9cef43fe58bd7f63de92f16e59077ee5c1dd6c7c8d86858f606001518b604051611b4f959493929190613d16565b60405180910390a15050505050509695505050505050565b6000600182611b76919061346b565b83511015611bb9576040517f08c379a0000000000000000000000000000000000000000000000000000000008152600401611bb090613db5565b60405180910390fd5b60008260018501015190508091505092915050565b6000602082611bdd919061346b565b83511015611c20576040517f08c379a0000000000000000000000000000000000000000000000000000000008152600401611c1790613e21565b60405180910390fd5b60008260208501015190508091505092915050565b611c3e81612613565b611c8d823083600160009054906101000a900473ffffffffffffffffffffffffffffffffffffffff1673ffffffffffffffffffffffffffffffffffffffff166127fb909392919063ffffffff16565b60008054906101000a900473ffffffffffffffffffffffffffffffffffffffff1673ffffffffffffffffffffffffffffffffffffffff1663588420b783836040518363ffffffff1660e01b8152600401611ce8929190613748565b6020604051808303816000875af1158015611d07573d6000803e3d6000fd5b505050506040513d601f19601f82011682018060405250810190611d2b9190613786565b611d6a576040517f08c379a0000000000000000000000000000000000000000000000000000000008152600401611d6190613e8d565b60405180910390fd5b7f172956b5ba35b4c72f12017e46b7b118426fc72f2802a0db77b28198281bf7698282604051611d9b929190613748565b60405180910390a15050565b611df482308360008054906101000a900473ffffffffffffffffffffffffffffffffffffffff1673ffffffffffffffffffffffffffffffffffffffff166127fb909392919063ffffffff16565b60008054906101000a900473ffffffffffffffffffffffffffffffffffffffff1673ffffffffffffffffffffffffffffffffffffffff1663e3b99e8583836040518363ffffffff1660e01b8152600401611e4f929190613748565b6020604051808303816000875af1158015611e6e573d6000803e3d6000fd5b505050506040513d601f19601f82011682018060405250810190611e929190613786565b611ed1576040517f08c379a0000000000000000000000000000000000000000000000000000000008152600401611ec890613b3f565b60405180910390fd5b7fc8114a69a766e691f503f227a368c628de422c458ec5640514ca4f6549080ce28282604051611f02929190613748565b60405180910390a15050565b6000806000806000611f1f8c612884565b945060008511611f64576040517f08c379a0000000000000000000000000000000000000000000000000000000008152600401611f5b90613ef9565b60405180910390fd5b8515611f9457611f738c6102a6565b809350819650829550505050611f888c6128b3565b90505080925050611fbb565b611f9d8c6128b3565b809350819550829650505050611fb28c6102a6565b90915050809250505b8273ffffffffffffffffffffffffffffffffffffffff168473ffffffffffffffffffffffffffffffffffffffff16141561202a576040517f08c379a000000000000000000000000000000000000000000000000000000000815260040161202190613f65565b60405180910390fd5b89156120c557600460009054906101000a900473ffffffffffffffffffffffffffffffffffffffff1673ffffffffffffffffffffffffffffffffffffffff168473ffffffffffffffffffffffffffffffffffffffff16146120c0576040517f08c379a00000000000000000000000000000000000000000000000000000000081526004016120b790613fd1565b60405180910390fd5b61215b565b871561215a5760008054906101000a900473ffffffffffffffffffffffffffffffffffffffff1673ffffffffffffffffffffffffffffffffffffffff168473ffffffffffffffffffffffffffffffffffffffff1614612159576040517f08c379a00000000000000000000000000000000000000000000000000000000081526004016121509061403d565b60405180910390fd5b5b5b88156121f657600460009054906101000a900473ffffffffffffffffffffffffffffffffffffffff1673ffffffffffffffffffffffffffffffffffffffff168273ffffffffffffffffffffffffffffffffffffffff16146121f1576040517f08c379a00000000000000000000000000000000000000000000000000000000081526004016121e8906140a9565b60405180910390fd5b61228c565b861561228b5760008054906101000a900473ffffffffffffffffffffffffffffffffffffffff1673ffffffffffffffffffffffffffffffffffffffff168273ffffffffffffffffffffffffffffffffffffffff161461228a576040517f08c379a000000000000000000000000000000000000000000000000000000000815260040161228190614115565b60405180910390fd5b5b5b891561235c578a34146122d4576040517f08c379a00000000000000000000000000000000000000000000000000000000081526004016122cb90614181565b60405180910390fd5b600460009054906101000a900473ffffffffffffffffffffffffffffffffffffffff1673ffffffffffffffffffffffffffffffffffffffff1663d0e30db08c6040518263ffffffff1660e01b81526004016000604051808303818588803b15801561233e57600080fd5b505af1158015612352573d6000803e3d6000fd5b505050505061257d565b6000341461239f576040517f08c379a0000000000000000000000000000000000000000000000000000000008152600401612396906141ed565b60405180910390fd5b871561254e57633b9aca00808c6123b6919061384e565b6123c0919061387f565b8b14612401576040517f08c379a00000000000000000000000000000000000000000000000000000000081526004016123f890614259565b60405180910390fd5b6000633b9aca008c612413919061384e565b905061241e81612613565b61246d8e3083600160009054906101000a900473ffffffffffffffffffffffffffffffffffffffff1673ffffffffffffffffffffffffffffffffffffffff166127fb909392919063ffffffff16565b60008054906101000a900473ffffffffffffffffffffffffffffffffffffffff1673ffffffffffffffffffffffffffffffffffffffff1663e34869d7826040518263ffffffff1660e01b81526004016124c69190612fb5565b6020604051808303816000875af11580156124e5573d6000803e3d6000fd5b505050506040513d601f19601f820116820180604052508101906125099190613786565b612548576040517f08c379a000000000000000000000000000000000000000000000000000000000815260040161253f906142c5565b60405180910390fd5b5061257c565b61257b8d308d8773ffffffffffffffffffffffffffffffffffffffff166127fb909392919063ffffffff16565b5b5b9850985098509850989350505050565b61260e8363a9059cbb60e01b84846040516024016125ac929190613748565b604051602081830303815290604052907bffffffffffffffffffffffffffffffffffffffffffffffffffffffff19166020820180517bffffffffffffffffffffffffffffffffffffffffffffffffffffffff838183161783525050505061290d565b505050565b80600160009054906101000a900473ffffffffffffffffffffffffffffffffffffffff1673ffffffffffffffffffffffffffffffffffffffff1663dd62ed3e3060008054906101000a900473ffffffffffffffffffffffffffffffffffffffff166040518363ffffffff1660e01b81526004016126919291906136dd565b602060405180830381865afa1580156126ae573d6000803e3d6000fd5b505050506040513d601f19601f820116820180604052508101906126d2919061371b565b10156127f857600160009054906101000a900473ffffffffffffffffffffffffffffffffffffffff1673ffffffffffffffffffffffffffffffffffffffff1663095ea7b360008054906101000a900473ffffffffffffffffffffffffffffffffffffffff167fffffffffffffffffffffffffffffffffffffffffffffffffffffffffffffffff6040518363ffffffff1660e01b8152600401612775929190613748565b6020604051808303816000875af1158015612794573d6000803e3d6000fd5b505050506040513d601f19601f820116820180604052508101906127b89190613786565b6127f7576040517f08c379a00000000000000000000000000000000000000000000000000000000081526004016127ee90614331565b60405180910390fd5b5b50565b61287e846323b872dd60e01b85858560405160240161281c93929190614351565b604051602081830303815290604052907bffffffffffffffffffffffffffffffffffffffffffffffffffffffff19166020820180517bffffffffffffffffffffffffffffffffffffffffffffffffffffffff838183161783525050505061290d565b50505050565b600060036014612894919061346b565b601483516128a2919061334e565b6128ac919061384e565b9050919050565b60008060006128cc600085610c7190919063ffffffff16565b92506128e2601485610ce790919063ffffffff16565b9050612904600360146128f5919061346b565b85610c7190919063ffffffff16565b91509193909250565b600061296f826040518060400160405280602081526020017f5361666545524332303a206c6f772d6c6576656c2063616c6c206661696c65648152508573ffffffffffffffffffffffffffffffffffffffff166129d49092919063ffffffff16565b90506000815111156129cf578080602001905181019061298f9190613786565b6129ce576040517f08c379a00000000000000000000000000000000000000000000000000000000081526004016129c5906143fa565b60405180910390fd5b5b505050565b60606129e384846000856129ec565b90509392505050565b606082471015612a31576040517f08c379a0000000000000000000000000000000000000000000000000000000008152600401612a289061448c565b60405180910390fd5b612a3a85612b00565b612a79576040517f08c379a0000000000000000000000000000000000000000000000000000000008152600401612a70906144f8565b60405180910390fd5b6000808673ffffffffffffffffffffffffffffffffffffffff168587604051612aa29190614554565b60006040518083038185875af1925050503d8060008114612adf576040519150601f19603f3d011682016040523d82523d6000602084013e612ae4565b606091505b5091509150612af4828286612b23565b92505050949350505050565b6000808273ffffffffffffffffffffffffffffffffffffffff163b119050919050565b60608315612b3357829050612b83565b600083511115612b465782518084602001fd5b816040517f08c379a0000000000000000000000000000000000000000000000000000000008152600401612b7a91906145af565b60405180910390fd5b9392505050565b6000604051905090565b600080fd5b600080fd5b600080fd5b600080fd5b6000601f19601f8301169050919050565b7f4e487b7100000000000000000000000000000000000000000000000000000000600052604160045260246000fd5b612bf182612ba8565b810181811067ffffffffffffffff82111715612c1057612c0f612bb9565b5b80604052505050565b6000612c23612b8a565b9050612c2f8282612be8565b919050565b600067ffffffffffffffff821115612c4f57612c4e612bb9565b5b612c5882612ba8565b9050602081019050919050565b82818337600083830152505050565b6000612c87612c8284612c34565b612c19565b905082815260208101848484011115612ca357612ca2612ba3565b5b612cae848285612c65565b509392505050565b600082601f830112612ccb57612cca612b9e565b5b8135612cdb848260208601612c74565b91505092915050565b600060208284031215612cfa57612cf9612b94565b5b600082013567ffffffffffffffff811115612d1857612d17612b99565b5b612d2484828501612cb6565b91505092915050565b600073ffffffffffffffffffffffffffffffffffffffff82169050919050565b6000612d5882612d2d565b9050919050565b612d6881612d4d565b82525050565b600062ffffff82169050919050565b612d8681612d6e565b82525050565b6000606082019050612da16000830186612d5f565b612dae6020830185612d5f565b612dbb6040830184612d7d565b949350505050565b600080fd5b600080fd5b612dd681612d4d565b8114612de157600080fd5b50565b600081359050612df381612dcd565b92915050565b6000819050919050565b612e0c81612df9565b8114612e1757600080fd5b50565b600081359050612e2981612e03565b92915050565b600060a08284031215612e4557612e44612dc3565b5b612e4f60a0612c19565b9050600082013567ffffffffffffffff811115612e6f57612e6e612dc8565b5b612e7b84828501612cb6565b6000830152506020612e8f84828501612de4565b6020830152506040612ea384828501612e1a565b6040830152506060612eb784828501612e1a565b6060830152506080612ecb84828501612e1a565b60808301525092915050565b60008115159050919050565b612eec81612ed7565b8114612ef757600080fd5b50565b600081359050612f0981612ee3565b92915050565b600080600080600060a08688031215612f2b57612f2a612b94565b5b600086013567ffffffffffffffff811115612f4957612f48612b99565b5b612f5588828901612e2f565b9550506020612f6688828901612efa565b9450506040612f7788828901612efa565b9350506060612f8888828901612efa565b9250506080612f9988828901612efa565b9150509295509295909350565b612faf81612df9565b82525050565b6000602082019050612fca6000830184612fa6565b92915050565b600060a08284031215612fe657612fe5612dc3565b5b612ff060a0612c19565b9050600082013567ffffffffffffffff8111156130105761300f612dc8565b5b61301c84828501612cb6565b600083015250602061303084828501612de4565b602083015250604061304484828501612e1a565b604083015250606061305884828501612e1a565b606083015250608061306c84828501612e1a565b60808301525092915050565b600080600080600060a0868803121561309457613093612b94565b5b600086013567ffffffffffffffff8111156130b2576130b1612b99565b5b6130be88828901612fd0565b95505060206130cf88828901612efa565b94505060406130e088828901612efa565b93505060606130f188828901612efa565b925050608061310288828901612efa565b9150509295509295909350565b600080fd5b600080fd5b60008083601f84011261312f5761312e612b9e565b5b8235905067ffffffffffffffff81111561314c5761314b61310f565b5b60208301915083600182028301111561316857613167613114565b5b9250929050565b60008060008060006080868803121561318b5761318a612b94565b5b600061319988828901612de4565b95505060206131aa88828901612de4565b94505060406131bb88828901612e1a565b935050606086013567ffffffffffffffff8111156131dc576131db612b99565b5b6131e888828901613119565b92509250509295509295909350565b61320081612ed7565b82525050565b600060208201905061321b60008301846131f7565b92915050565b60006020828403121561323757613236612b94565b5b600061324584828501612e1a565b91505092915050565b6000819050919050565b600061327361326e61326984612d2d565b61324e565b612d2d565b9050919050565b600061328582613258565b9050919050565b60006132978261327a565b9050919050565b6132a78161328c565b82525050565b60006020820190506132c2600083018461329e565b92915050565b60006020820190506132dd6000830184612d5f565b92915050565b60006132ee8261327a565b9050919050565b6132fe816132e3565b82525050565b600060208201905061331960008301846132f5565b92915050565b7f4e487b7100000000000000000000000000000000000000000000000000000000600052601160045260246000fd5b600061335982612df9565b915061336483612df9565b9250828210156133775761337661331f565b5b828203905092915050565b600082825260208201905092915050565b7f73656e646572206973206e6f7420746f6e206f722077746f6e2e000000000000600082015250565b60006133c9601a83613382565b91506133d482613393565b602082019050919050565b600060208201905081810360008301526133f8816133bc565b9050919050565b7f646174612e6c656e677468206e6565642074686520313633206f766572000000600082015250565b6000613435601d83613382565b9150613440826133ff565b602082019050919050565b6000602082019050818103600083015261346481613428565b9050919050565b600061347682612df9565b915061348183612df9565b9250827fffffffffffffffffffffffffffffffffffffffffffffffffffffffffffffffff038211156134b6576134b561331f565b5b828201905092915050565b7f736c6963655f6f766572666c6f77000000000000000000000000000000000000600082015250565b60006134f7600e83613382565b9150613502826134c1565b602082019050919050565b60006020820190508181036000830152613526816134ea565b9050919050565b7f736c6963655f6f75744f66426f756e6473000000000000000000000000000000600082015250565b6000613563601183613382565b915061356e8261352d565b602082019050919050565b6000602082019050818103600083015261359281613556565b9050919050565b7f746f416464726573735f6f75744f66426f756e64730000000000000000000000600082015250565b60006135cf601583613382565b91506135da82613599565b602082019050919050565b600060208201905081810360008301526135fe816135c2565b9050919050565b7f746f55696e7432345f6f75744f66426f756e6473000000000000000000000000600082015250565b600061363b601483613382565b915061364682613605565b602082019050919050565b6000602082019050818103600083015261366a8161362e565b9050919050565b7f726563697069656e74206973206e6f742073656e646572000000000000000000600082015250565b60006136a7601783613382565b91506136b282613671565b602082019050919050565b600060208201905081810360008301526136d68161369a565b9050919050565b60006040820190506136f26000830185612d5f565b6136ff6020830184612d5f565b9392505050565b60008151905061371581612e03565b92915050565b60006020828403121561373157613730612b94565b5b600061373f84828501613706565b91505092915050565b600060408201905061375d6000830185612d5f565b61376a6020830184612fa6565b9392505050565b60008151905061378081612ee3565b92915050565b60006020828403121561379c5761379b612b94565b5b60006137aa84828501613771565b91505092915050565b7f617070726f7665206661696c0000000000000000000000000000000000000000600082015250565b60006137e9600c83613382565b91506137f4826137b3565b602082019050919050565b60006020820190508181036000830152613818816137dc565b9050919050565b7f4e487b7100000000000000000000000000000000000000000000000000000000600052601260045260246000fd5b600061385982612df9565b915061386483612df9565b9250826138745761387361381f565b5b828204905092915050565b600061388a82612df9565b915061389583612df9565b9250817fffffffffffffffffffffffffffffffffffffffffffffffffffffffffffffffff04831182151516156138ce576138cd61331f565b5b828202905092915050565b6138e281612d4d565b82525050565b6138f181612d6e565b82525050565b61390081612df9565b82525050565b61390f81612d2d565b82525050565b6101008201600082015161392c60008501826138d9565b50602082015161393f60208501826138d9565b50604082015161395260408501826138e8565b50606082015161396560608501826138d9565b50608082015161397860808501826138f7565b5060a082015161398b60a08501826138f7565b5060c082015161399e60c08501826138f7565b5060e08201516139b160e0850182613906565b50505050565b6000610100820190506139cd6000830184613915565b92915050565b600081519050919050565b600082825260208201905092915050565b60005b83811015613a0d5780820151818401526020810190506139f2565b83811115613a1c576000848401525b50505050565b6000613a2d826139d3565b613a3781856139de565b9350613a478185602086016139ef565b613a5081612ba8565b840191505092915050565b600060a0830160008301518482036000860152613a788282613a22565b9150506020830151613a8d60208601826138d9565b506040830151613aa060408601826138f7565b506060830151613ab360608601826138f7565b506080830151613ac660808601826138f7565b508091505092915050565b60006020820190508181036000830152613aeb8184613a5b565b905092915050565b7f77746f6e2073776170546f544f4e416e645472616e73666572206661696c0000600082015250565b6000613b29601e83613382565b9150613b3482613af3565b602082019050919050565b60006020820190508181036000830152613b5881613b1c565b9050919050565b600060c082019050613b746000830189612d5f565b613b816020830188612d5f565b613b8e6040830187612d5f565b613b9b6060830186612fa6565b613ba86080830185612fa6565b613bb560a0830184612fa6565b979650505050505050565b61010082016000820151613bd760008501826138d9565b506020820151613bea60208501826138d9565b506040820151613bfd60408501826138e8565b506060820151613c1060608501826138d9565b506080820151613c2360808501826138f7565b5060a0820151613c3660a08501826138f7565b5060c0820151613c4960c08501826138f7565b5060e0820151613c5c60e0850182613906565b50505050565b600061010082019050613c786000830184613bc0565b92915050565b600060a0830160008301518482036000860152613c9b8282613a22565b9150506020830151613cb060208601826138d9565b506040830151613cc360408601826138f7565b506060830151613cd660608601826138f7565b506080830151613ce960808601826138f7565b508091505092915050565b60006020820190508181036000830152613d0e8184613c7e565b905092915050565b600060a082019050613d2b6000830188612d5f565b613d386020830187612d5f565b613d456040830186612d5f565b613d526060830185612fa6565b613d5f6080830184612fa6565b9695505050505050565b7f746f55696e74385f6f75744f66426f756e647300000000000000000000000000600082015250565b6000613d9f601383613382565b9150613daa82613d69565b602082019050919050565b60006020820190508181036000830152613dce81613d92565b9050919050565b7f746f55696e743235365f6f75744f66426f756e64730000000000000000000000600082015250565b6000613e0b601583613382565b9150613e1682613dd5565b602082019050919050565b60006020820190508181036000830152613e3a81613dfe565b9050919050565b7f77746f6e207377617046726f6d544f4e416e645472616e73666572206661696c600082015250565b6000613e77602083613382565b9150613e8282613e41565b602082019050919050565b60006020820190508181036000830152613ea681613e6a565b9050919050565b7f77726f6e67207061746800000000000000000000000000000000000000000000600082015250565b6000613ee3600a83613382565b9150613eee82613ead565b602082019050919050565b60006020820190508181036000830152613f1281613ed6565b9050919050565b7f73616d6520746f6b656e496e202c20746f6b656e4f7574000000000000000000600082015250565b6000613f4f601783613382565b9150613f5a82613f19565b602082019050919050565b60006020820190508181036000830152613f7e81613f42565b9050919050565b7f746f6b656e496e206973206e6f74205745544800000000000000000000000000600082015250565b6000613fbb601383613382565b9150613fc682613f85565b602082019050919050565b60006020820190508181036000830152613fea81613fae565b9050919050565b7f746f6b656e496e206973206e6f742057544f4e00000000000000000000000000600082015250565b6000614027601383613382565b915061403282613ff1565b602082019050919050565b600060208201905081810360008301526140568161401a565b9050919050565b7f746f6b656e4f7574206973206e6f742057455448000000000000000000000000600082015250565b6000614093601483613382565b915061409e8261405d565b602082019050919050565b600060208201905081810360008301526140c281614086565b9050919050565b7f746f6b656e4f7574206973206e6f742057544f4e000000000000000000000000600082015250565b60006140ff601483613382565b915061410a826140c9565b602082019050919050565b6000602082019050818103600083015261412e816140f2565b9050919050565b7f77726f6e67206d73672e76616c75650000000000000000000000000000000000600082015250565b600061416b600f83613382565b915061417682614135565b602082019050919050565b6000602082019050818103600083015261419a8161415e565b9050919050565b7f6d73672e76616c75652073686f756c6420626520300000000000000000000000600082015250565b60006141d7601583613382565b91506141e2826141a1565b602082019050919050565b60006020820190508181036000830152614206816141ca565b9050919050565b7f616d6f756e74496e206e6565642077746f6e2075696e74000000000000000000600082015250565b6000614243601783613382565b915061424e8261420d565b602082019050919050565b6000602082019050818103600083015261427281614236565b9050919050565b7f77746f6e207377617046726f6d544f4e206661696c0000000000000000000000600082015250565b60006142af601583613382565b91506142ba82614279565b602082019050919050565b600060208201905081810360008301526142de816142a2565b9050919050565b7f746f6e20617070726f7665206661696c00000000000000000000000000000000600082015250565b600061431b601083613382565b9150614326826142e5565b602082019050919050565b6000602082019050818103600083015261434a8161430e565b9050919050565b60006060820190506143666000830186612d5f565b6143736020830185612d5f565b6143806040830184612fa6565b949350505050565b7f5361666545524332303a204552433230206f7065726174696f6e20646964206e60008201527f6f74207375636365656400000000000000000000000000000000000000000000602082015250565b60006143e4602a83613382565b91506143ef82614388565b604082019050919050565b60006020820190508181036000830152614413816143d7565b9050919050565b7f416464726573733a20696e73756666696369656e742062616c616e636520666f60008201527f722063616c6c0000000000000000000000000000000000000000000000000000602082015250565b6000614476602683613382565b91506144818261441a565b604082019050919050565b600060208201905081810360008301526144a581614469565b9050919050565b7f416464726573733a2063616c6c20746f206e6f6e2d636f6e7472616374000000600082015250565b60006144e2601d83613382565b91506144ed826144ac565b602082019050919050565b60006020820190508181036000830152614511816144d5565b9050919050565b600081905092915050565b600061452e826139d3565b6145388185614518565b93506145488185602086016139ef565b80840191505092915050565b60006145608284614523565b915081905092915050565b600081519050919050565b60006145818261456b565b61458b8185613382565b935061459b8185602086016139ef565b6145a481612ba8565b840191505092915050565b600060208201905081810360008301526145c98184614576565b90509291505056fea2646970667358221220cac4109f36f09c8bcbf5a43d8f8844f749d8a3b52d868bce334a8cf7f9b9c51664736f6c634300080c0033",
  "linkReferences": {},
  "deployedLinkReferences": {}
}